:100000000C947B000C94A3000C94A3000C94A3000C
:100010000C94A3000C94A3000C94A3000C94A300D4
:100020000C94A3000C94A3000C94A3000C94A300C4
:100030000C94A3000C94A3000C94A3000C94A300B4
:100040000C94C30E0C94A3000C94A3000C94A30076
:100050000C94A3000C94A3000C94A3000C94A30094
:100060000C94A3000C94A300D600B600B800C10005
:10007000C800D600D600D600D600D600D600D600DE
:10008000D600CA00D600D600D600D600BF00D600E3
:10009000D600D600B40000000007000201000003F3
:1000A0000406000000000000000001020408102007
:1000B00040800102040810200102040810200404FA
:1000C0000404040404040202020202020303030300
:1000D000030300000000250028002B0000000000A2
:1000E000240027002A002002D903E305FE055A0652
:1000F000990A0512101211241FBECFEFD8E0DEBFFF
:10010000CDBF11E0A0E0B1E0E0E9F4E202C005906B
:100110000D92A237B107D9F721E0A2E7B1E001C003
:100120001D92A33EB207E1F710E0CBE7D0E004C098
:100130002197FE010E944012C337D107C9F70E94E0
:1001400069030C941B120C940000082E000C990BF0
:10015000AA0BBB0BFC01E156F109E731F10530F5C3
:10016000EC5CFF4F0C94401261E021C060E001C0E4
:1001700061E080911A010E94FE0261E01DC060E012
:1001800001C061E080911A010E94FE0260E008C097
:1001900060E001C061E080911A010E94FE0261E00E
:1001A000809118010E94FE0261E00BC060E0809126
:1001B0001A010E94FE0260E0809118010E94FE0276
:1001C00060E0809116010C94FE02EF92FF920F9373
:1001D0001F93CF93DF9300D000D000D0CDB7DEB710
:1001E0008E010F5F1F4F96E0F80111929A95E9F783
:1001F00083FB992790F9998382FB992790F99A8339
:1002000081FB992790F99B8381708C8360E08091BA
:1002100014010E94FE0260E0809110010E94FE0223
:100220007E01F7E0EF0EF11C0E151F0591F0F801AD
:1002300061918F01809112010E94FE0261E0809124
:1002400014010E94FE0260E0809114010E94FE02EF
:10025000EBCF61E08091100126960FB6F894DEBFD7
:100260000FBECDBFDF91CF911F910F91FF90EF9007
:100270000C94FE028E3691F05CF48D3211F18536CD
:1002800001F560E080910A010E94FE0260E01FC05B
:10029000833759F08737A9F460E014C060E080919B
:1002A0000A010E94FE0260E006C060E080910A013F
:1002B0000E94FE0261E0809108010E94FE0260E05F
:1002C0000BC061E080910A010E94FE0261E0809112
:1002D00008010E94FE0261E0809106010C94FE027A
:1002E000CF93DF931F92CDB7DEB769830E94A5003D
:1002F00069818FE9860F843010F06D3211F48DE240
:1003000009C06E3631F0653621F0862F8B7F83373A
:1003100031F4862F0F90DF91CF910C943A010F901A
:10032000DF91CF910895CF93DF93C0911E01D091BB
:100330001F0180911C0190911D018C179D0734F0C5
:1003400061E08C2F0E94C2022196F3CFC0910E0172
:10035000D0910F0180910C0190910D018C179D0798
:1003600034F061E08C2F0E94C2022196F3CF6DE23F
:100370008DE20E94700180E090E0DF91CF910C94BB
:10038000E5008436B1F184F4813629F10CF446C0DD
:10039000823641F1833609F041C060E0809104016A
:1003A0000E94FE0224E040C08E3651F14CF48536A6
:1003B000A9F560E0809104010E94FE0220E234C0B1
:1003C000833729F1873751F560E0809104010E945D
:1003D000FE0220E129C060E0809104010E94FE023B
:1003E00021E022C060E0809104010E94FE0222E030
:1003F0001BC060E0809104010E94FE0228E014C04E
:1004000060E0809104010E94FE0220E40DC060E0E3
:10041000809104010E94FE0220E806C060E0809105
:1004200004010E94FE0220E041E0609102018091FF
:1004300000010E942E0361E0809104010C94FE02F1
:100440000F9300E020E040E060E088E891E00E9447
:10045000C2036CEA7FE082E891E00E94660985E7CA
:1004600091E00F910C94E1040F931F93CF93DF93CE
:10047000CDB7DEB72D970FB6F894DEBF0FBECDBF58
:1004800062E871E0CE0101960E94280A8B819C816E
:1004900090937801809377018D819E81AF81B8859B
:1004A0008093790190937A01A0937B01B0937C01B2
:1004B00089859A85AB85BC8580937D0190937E016B
:1004C000A0937F01B09380018D858093810185E7A2
:1004D00091E00E94110481111CC060917301809110
:1004E00072010E94700180917401082E000C990B1A
:1004F0000E94E500809173010E94C1012D960FB604
:10050000F894DEBF0FBECDBFDF91CF911F910F9149
:10051000089502E711E085E791E00E94BF05882376
:10052000E1F285E791E00E944204F80181938F0196
:10053000F2CF833081F028F4813099F08230A1F03D
:1005400008958630A9F08730B9F08430D1F48091D5
:1005500080008F7D03C0809180008F778093800022
:10056000089584B58F7702C084B58F7D84BD0895CA
:100570008091B0008F7703C08091B0008F7D809311
:10058000B0000895CF93DF9390E0FC01E655FF4F54
:100590002491FC01E254FF4F8491882361F190E0A3
:1005A000880F991FFC01E452FF4FC591D491FC01C3
:1005B000EE52FF4FA591B491611109C09FB7F89415
:1005C0008881209582238883EC912E230BC0623092
:1005D00061F49FB7F8943881822F809583238883B4
:1005E000EC912E2B2C939FBF06C08FB7F894E88117
:1005F0002E2B28838FBFDF91CF9108951F93CF9328
:10060000DF93282F30E0F901EA56FF4F8491F9017A
:10061000E655FF4FD491F901E254FF4FC491CC232A
:10062000C9F0162F81110E949902EC2FF0E0EE0F15
:10063000FF1FEE52FF4FA591B4918FB7F89411119F
:1006400005C09C91ED2FE095E92302C0EC91ED2BC4
:10065000EC938FBFDF91CF911F910895BF92CF92FE
:10066000DF92EF92FF920F931F93CF93DF93C82EE9
:10067000D62EB42EC7E0D0E0022F10E087E0E82E9F
:10068000F12CB11005C0C7018C1B9D0B980102C055
:1006900098018C2F02C0359527958A95E2F7B9010C
:1006A000617077278C2D0E94FE0261E08D2D0E94E3
:1006B000FE0260E08D2D0E94FE02219710F7DF916F
:1006C000CF911F910F91FF90EF90DF90CF90BF904F
:1006D00008950E94640F0E949301C0E0D0E00E9440
:1006E00034022097E1F30E940000F9CF8F929F928D
:1006F000AF92BF92CF92DF92EF92FF920F931F9330
:10070000CF93DF937C018B016C0182E0C80ED11C7A
:100710004701E5E08E0E911CC0E0D0E0F60161914A
:100720006F014AE050E0C8010E941E105C016EE2B9
:10073000C8010E94B40F8A0D9B1DC80FD91FC81491
:10074000D90461F74AE050E0F7016581C8010E94D1
:100750001E108C0F9D1FDF91CF911F910F91FF9065
:10076000EF90DF90CF90BF90AF909F908F900895C3
:1007700026E231E0FC01318320831282138214824D
:10078000158208950F93FC0186E291E091838083A6
:1007900062834383248305830F910895FB01408185
:1007A000518162817381FC01428353836483758329
:1007B0000895EEE8F1E086E291E091838083128271
:1007C0001382148215820895CF93DF931F92CDB7C1
:1007D000DEB76983DC01ED91FC910280F381E02DAD
:1007E00041E050E0BE016F5F7F4F09950F90DF91B0
:1007F000CF910895CF93DF93EC01E881F9810480D4
:10080000F581E02DCE010995892B41F0E881F98130
:100810000680F781E02DCE010995EFCFDF91CF91D2
:10082000089521E0FC018485843009F420E0822FC2
:1008300008950F931F93CF93DF938C01D42FC52F6F
:10084000FC018485843041F481E090E0F8019383D9
:10085000828380E090E006C00E94A90D892BA1F35D
:100860008D2F9C2FDF91CF911F910F910895FC0147
:100870006485643021F08CEB91E00C947D0B80E07A
:1008800090E00895CF93DF931F92CDB7DEB741E09C
:1008900050E0BE016F5F7F4FFC0184850E94FA0D1E
:1008A000181619061CF4898190E002C08FEF9FEFA3
:1008B0000F90DF91CF910895FC0184850C94FA0D7F
:1008C0000F931F93CF93DF931F92CDB7DEB78C01A9
:1008D000DC01ED91FC910480F581E02D0995892BD7
:1008E00051F0BE016F5F7F4FF80184850E94400E7A
:1008F000898190E002C08FEF9FEF0F90DF91CF9141
:100900001F910F910895CF92DF92EF92FF920F9374
:100910001F93CF93DF93CDB7DEB7AF970FB6F894A1
:10092000DEBF0FBECDBF8C016B017A01CE010196F7
:100930000E94B803CE0109960E949211CE018A96B8
:100940000E94B8036AE971E0CE0184960E94EE0528
:10095000BE016C5D7F4FCE0101960E940C06AE0178
:10096000465D5F4FB601CE0101960E947E08813040
:100970009105C1F4D801ED91FC910484F585E02D39
:1009800086E291E09DA38CA38CA59DA5AEA5BFA5F5
:100990008EA39FA3A8A7B9A7A701BE016C5D7F4F37
:1009A000C8010995AF960FB6F894DEBF0FBECDBF54
:1009B000DF91CF911F910F91FF90EF90DF90CF903B
:1009C0000895FC011382128288EE93E0A0E0B0E06B
:1009D00084839583A683B7838CE291E0918380839F
:1009E00084E084870895FC011382128288EE93E0EC
:1009F000A0E0B0E084839583A683B7838CE291E086
:100A00009183808364870895FC018485843039F064
:100A100090E0982F88278D5F9B4F0C94090B80E006
:100A20000895AF92BF92CF92DF92EF92FF920F9311
:100A30001F93CF93DF93FC012485243009F03EC03F
:100A40006A018B01EC0183E0A82E84E0B82EE12C32
:100A5000F12CC5010E94090B811102C0EC860BC06C
:100A60008B7F8831D9F3FFEFEF1AFF0AB394E4E0EC
:100A7000EE16F10471F78C85843001F1209120018C
:100A8000309121012F5F3F4F11F420E034E030938B
:100A9000210120932001409120015091210120E06B
:100AA00061E00E941F0DB8016E5F7F4FA6018C852B
:100AB0000E946B0D811105C084E08C8780E090E07E
:100AC00011C0CE010E940405873151F061E070E051
:100AD00080E090E00E943E0FCE010E940405EACF24
:100AE00081E090E0DF91CF911F910F91FF90EF9007
:100AF000DF90CF90BF90AF900895CF92DF92EF92AA
:100B0000FF92CF93DF93EC018C85843089F10E94B2
:100B1000A20D0E940D0F6B017C01CE010E94040505
:100B20008823A1F00E940D0FDC01CB018C199D09D7
:100B3000AE09BF09883E9340A105B10538F461E0D4
:100B400070E080E090E00E943E0FE7CFCE010E946F
:100B50000405882319F08C850E94110DEC85F0E0C6
:100B6000EE0FFF1FEE55FE4F1182108284E08C873E
:100B7000DF91CF91FF90EF90DF90CF900895CF93CA
:100B8000DF93FC0124852430D1F0EC010E940405A0
:100B9000843181F0882371F0883161F08C3161F407
:100BA000E881F9810480F581E02DCE01099521E0ED
:100BB000892B19F420E001C021E0822F01C080E0E0
:100BC000DF91CF9108950F9300E020E040E060E0D6
:100BD00084E991E00E94C2030F91089526E231E07A
:100BE000FC0131832083FB01428153816481758143
:100BF000FC01428353836483758308950F9300E05F
:100C000020E040E060E08AEA91E00E94C2038AE9C5
:100C100091E00F910C94B803FB01428153816481F0
:100C20007581FC0142835383648375831782168226
:100C30000895CF93DF93DA01FB01EB0189918111D4
:100C4000FDCF20E030E080E090E04AE05191552374
:100C5000F1F0843091054CF55E3261F42F3F31059F
:100C600009F01CF5ED01C80FD91F2A83019620E079
:100C700030E0ECCF429FB001439F700D1124252F2F
:100C8000550F330B20533109260F371FDFCF2F3F6E
:100C9000310509F054F4843091053CF4FD01E80F6E
:100CA000F91F228381E090E002C080E090E0DF91B4
:100CB000CF9108950F9300E020E040E060E080EBEA
:100CC00091E00E94C2030F9108958F929F92AF927C
:100CD000BF92CF92DF92EF92FF920F931F93CF9329
:100CE000DF9300D01F92CDB7DEB77C016B010E946D
:100CF0000D0FF701778366838701085F1F4FB701E8
:100D00006A5F7F4F42E050E0C8010E948D1081E091
:100D100090E09A83898342E050E0BE016F5F7F4F8D
:100D2000C8010E948D1080E091E09A83898342E09F
:100D300050E0BE016F5F7F4FC8010E948D101A8284
:100D4000198242E050E0BE016F5F7F4FC8010E94F0
:100D50008D1042E050E0BE016F5F7F4FC8010E94DE
:100D60008D1042E050E0BE016F5F7F4FC8010E94CE
:100D70008D105601F5018081882329F1C6017C017F
:100D8000FC0120810196211116C0570147018C18E2
:100D90009D081814190494F48B8241E050E0BE01C0
:100DA0006D5F7F4FC8010E948D10A401B601C8017C
:100DB0000E948D1003C02E3211F7E7CF6701FFEFBD
:100DC000CF1ADF0AD7CF1B8241E050E0BE016D5F32
:100DD0007F4FC8010E948D10E12CFF24F394FA820A
:100DE000E98242E050E0BE016F5F7F4FC8010E9480
:100DF0008D10FA82E98242E050E0BE016F5F7F4FC2
:100E0000C8010E948D1081E090E00F900F900F902C
:100E1000DF91CF911F910F91FF90EF90DF90CF90D6
:100E2000BF90AF909F908F9008954F925F926F9276
:100E30007F928F929F92AF92BF92CF92DF92EF926A
:100E4000FF920F931F93CF93DF93CDB7DEB76597D4
:100E50000FB6F894DEBF0FBECDBF6C015B017A0107
:100E60000E940D0F2B013C018601085F1F4F4501B9
:100E7000A12CB12CC8010E94021118161906A4F069
:100E80000E940D0FDC01CB0184199509A609B70951
:100E900088169906AA06BB06D0F062E370E080E0EF
:100EA00090E00E943E0FE6CFF601428153816481BB
:100EB0007581818D928DA38DB48D481759076A076E
:100EC0007B0741F4858D968DC59721F406C02FEFE1
:100ED0003FEFFCC02EEF3FEFF9C0C8010E94401069
:100EE0000C970CF4F1C04CE050E0BE016F5F7F4FF7
:100EF000C8010E94CA102B813C8132272327322748
:100F00003A8B298BF6014681578189819A8148174E
:100F1000590711F437FD06C0C8010E945A102CEF82
:100F20003FEFD4C02F703270232B31F0C8010E94E4
:100F30005A102BEF3FEFCAC0CF80D884DC24CD24D9
:100F4000DC24C114D10431F4C8010E945A102AEFE4
:100F50003FEFBCC0A12CB12C8D819E8198278927A1
:100F60009827A816B90640F541E050E0BE01635F3E
:100F70007F4FC8010E94CA108D85811113C08D85D5
:100F80008111F2CFC8010E94A110C8010E94A110D6
:100F9000C8010E94A110C8010E94A110FFEFAF1A62
:100FA000BF0ADACF8D859FEF980F9D87882339F38D
:100FB000C8010E94A110F6CFA12CB12C41E050E055
:100FC000BE016D5E7F4FC8010E94CA108B89982FA9
:100FD000907C61F4882371F08B899FEF980F9B8B35
:100FE000882341F0C8010E94A110F6CFC8010E94D9
:100FF000A1101B8A8B898111E1CF42E050E0BE0134
:10100000615F7F4FC8010E94CA1042E050E0BE01FC
:10101000635F7F4FC8010E94CA10C8010E94A110DF
:10102000C8010E94A110C8010E94A110C8010E941D
:10103000A11042E050E0BE016F5E7F4FC8010E94E8
:10104000CA108F8598898115914001F52D853E85BF
:1010500032272327322721303105C1F489899A8923
:101060008115944031F0C8010E945A1027EF3FEFDC
:101070002DC0B7016E5F7F4F44E050E0C8012C8B5C
:101080003D8B0E94CA102C893D8920C0812C912C57
:1010900089899A899827892798278816990638F484
:1010A000C8010E94A1108FEF881A980AF1CFEFEFC4
:1010B000AE1ABE0AAC14BD0409F080CFC8010E946C
:1010C0005A1026EF3FEF02C02DEF3FEFC9016596A2
:1010D0000FB6F894DEBF0FBECDBFDF91CF911F9149
:1010E0000F91FF90EF90DF90CF90BF90AF909F90C7
:1010F0008F907F906F905F904F9008958F929F9206
:10110000AF92BF92CF92DF92EF92FF920F931F9315
:10111000CF93DF9300D000D000D0CDB7DEB77C01F5
:101120004B015A010E9419068C01892B09F05BC002
:10113000F70142815381648175818091B201909160
:10114000B301A091B401B091B501481759076A07DE
:101150007B0709F44BC00E940D0F6701F8E0CF0E2A
:10116000D11C6F7077277C5FC6010E9455118130BA
:1011700009F03EC086E291E09A838983F70182817B
:101180009381A481B5818B839C83AD83BE8345E32A
:1011900050E0BE016F5F7F4FC6010E948110892B16
:1011A00019F400E010E01BC0B401C7010E946506FD
:1011B000892BB9F3C6010E948910892B91F383E032
:1011C000882E912CA50168E873E1C7010E941507DC
:1011D0008C01F1E08F1A910811F0019699F3C60184
:1011E0000E946C1005C001E010E002C00EEF1FEF7E
:1011F000C80126960FB6F894DEBF0FBECDBFDF91B3
:10120000CF911F910F91FF90EF90DF90CF90BF9003
:10121000AF909F908F900895CF93DF931F92CDB79B
:10122000DEB76983DC01ED91FC910280F381E02D52
:1012300041E050E0BE016F5F7F4F09950F90DF9155
:10124000CF910895EF92FF920F931F93CF93DF9367
:10125000CDB7DEB72D970FB6F894DEBF0FBECDBF6A
:101260007C0100E010E0602FCE0101960E94F304A3
:10127000CE0101960E940405811116C0F701448138
:10128000558120E061E0802F0E941F0D802F0E9479
:10129000570DF70184819581000F111FF801EE555C
:1012A000FE4F9183808305C00F5F1F4F04301105EF
:1012B000D1F62D960FB6F894DEBF0FBECDBFDF91ED
:1012C000CF911F910F91FF90EF900895FC01138231
:1012D000128288E491E0918380837583648308950A
:1012E000AF92BF92CF92DF92EF92FF921F93CF9374
:1012F000DF93CDB7DEB72D970FB6F894DEBF0FBEE4
:10130000CDBF7C0192EAA92E91E0B92E10E0C12C4C
:10131000D12C612FCE0101960E94F304D5012D91AD
:101320003D915D01F7018481958128173907B1F45A
:10133000CE0101960E940405843169F0CE01019628
:101340000E9404058C3151F4CE0101960E943704AD
:10135000892B91F003C0CC24C394D12C1F5F14308F
:10136000C1F6CD2871F4D701ED91FC910480F5818F
:10137000E02DC701099505C0CE0101960E947D05AB
:10138000EDCF2D960FB6F894DEBF0FBECDBFDF9127
:10139000CF911F91FF90EF90DF90CF90BF90AF90D3
:1013A00008956F927F928F929F92AF92BF92CF9249
:1013B000DF92EF92FF921F93CF93DF93CDB7DEB70B
:1013C0002D970FB6F894DEBF0FBECDBF5C014B0169
:1013D0003A010E94700982EAC82E81E0D82E10E0FE
:1013E000E12CF12C612FCE0101960E94F304F6014D
:1013F000219131916F01F501848195812817390779
:1014000031F4CE0101960E9404058731C1F01F5FBF
:10141000143041F7C7012D960FB6F894DEBF0FBE0A
:10142000CDBFDF91CF911F91FF90EF90DF90CF90D4
:10143000BF90AF909F908F907F906F900895A30181
:10144000B401CE0101960E941904E80EF91EDFCF07
:10145000AF92BF92CF92DF92FF920F931F93CF93E1
:10146000DF93CDB7DEB72D970FB6F894DEBF0FBE72
:10147000CDBF8C015B01CB010E94700982EAC82EAE
:1014800081E0D82EF12C6F2DCE0101960E94F3043D
:10149000F601219131916F01F50184819581281721
:1014A000390761F4CE0101960E940405873179F075
:1014B000CE0101960E9404058C3149F0F394F4E0CA
:1014C000FF12E1CF64E0C8010E94F30421C0CE0105
:1014D00001960E943704892B89F38B819C81F80146
:1014E000938382838D819E81AF81B8858483958328
:1014F000A683B78389859A85AB85BC8580879187CC
:10150000A287B3878CE291E0918380838D85848765
:10151000C8012D960FB6F894DEBF0FBECDBFDF9188
:10152000CF911F910F91FF90DF90CF90BF90AF9020
:1015300008950F9300E020E040E060E086EB91E04A
:101540000E94C2030F9108958EBD0DB407FEFDCF1A
:101550008EB508952A9808952A9A08951F93CF93D7
:10156000DF9300D0CDB7DEB7182F6A8399830E942E
:10157000AA0A80EF0E94A40A9981892F0E94A40AD6
:10158000812F0E94A40A6A81862F0E94A40A0E94C9
:10159000AC0A81E00F900F90DF91CF911F910895D9
:1015A0009B0190E00496982F8827642F820F931F49
:1015B0000C94AE0ACF92DF92EF92FF920F931F939B
:1015C000CF93DF93EC017A018B016C01C40ED51E21
:1015D000CC15DD05A1F00E94AA0A80EF0E94A40AA2
:1015E0008D2F0E94A40A8C2F0E94A40A2196F80134
:1015F00081918F010E94A40A0E94AC0AE9CFC70121
:10160000DF91CF911F910F91FF90EF90DF90CF90DE
:1016100008951F93CF93DF931F92CDB7DEB7182F96
:1016200099830E94AA0A8FE00E94A40A9981892FB7
:101630000E94A40A812F0E94A40A80E00E94A40AAA
:1016400089830E94AC0A89810F90DF91CF911F910D
:10165000089590E00496982F8827860F971F0C9482
:10166000090B1F93CF93DF93182F60E270E00E9465
:10167000290BC82FD0E061E270E0812F0E94290B76
:10168000DC2FCC279E01282BC901DF91CF911F9120
:101690000895FF920F931F93CF93DF93F62EC0E030
:1016A000D0E08F2D0E94310B8C01892B21F08F2DE2
:1016B0000E94310BEC01C017D10799F7CE01DF91E1
:1016C000CF911F910F91FF9008951F93CF93DF93B8
:1016D000182F66E270E00E94290BC82FD0E067E265
:1016E00070E0812F0E94290BDC2FCC279E01282B34
:1016F000C901DF91CF911F910895FF920F931F931E
:10170000CF93DF93F62EC0E0D0E08F2D0E94650BC3
:101710008C01892B21F08F2D0E94650BEC01C017E5
:10172000D10799F7CE01DF91CF911F910F91FF90D3
:1017300008956F927F928F929F92AF92BF92CF92B5
:10174000DF92EF92FF920F931F93CF93DF931F923D
:10175000CDB7DEB7882E962E6A01590164E270E09B
:10176000892D99830E94290BE82EF12C65E270E007
:10177000892D0E94290BFE2CEE24E82A37016C0CDF
:101780007D1CA3015770E82C9981F92EE90CF11CFE
:10179000E90CF11CF70180819181840F951F9A015A
:1017A000200F311F2130384098F060E078E06B0165
:1017B000C41AD50AA601B5010E94DA0AA8014C197B
:1017C0005D09B5016C0D7D1DF7018081918102C01D
:1017D000A801B5010E94DA0A060D171D412F64E227
:1017E00070E0892D0E94D00A402F65E270E0892DBB
:1017F0000F90DF91CF911F910F91FF90EF90DF90AD
:10180000CF90BF90AF909F908F907F906F900C94EF
:10181000D00A0F931F9389019A0140E050E00E9483
:10182000990B1F910F910895CF92DF92EF92FF9243
:101830000F931F93CF93DF93EC017A018B016C011F
:10184000C40ED51ECC15DD05A9F00E94AA0A8FE0B2
:101850000E94A40A8D2F0E94A40A8C2F0E94A40A21
:10186000219680E00E94A40AF80181938F010E94D2
:10187000AC0AE8CFC701DF91CF911F910F91FF9084
:10188000EF90DF90CF900895CF92DF92EF92FF928A
:101890000F931F93CF93DF93690157707C01E60E7E
:1018A000F11CE60EF11CF70180859185840F951FD0
:1018B0009A01200F311F2130384098F0E0E0F8E025
:1018C000EF01C41BD50BAE01B6010E94140CA80198
:1018D0004C1B5D0BB6016C0F7D1FF7018085918558
:1018E00002C0A801B601DF91CF911F910F91FF9027
:1018F000EF90DF90CF900C94140C8F929F92AF9248
:10190000BF92CF92DF92EF92FF920F931F93CF93EC
:10191000DF936C01962E5A017901802E68E270E007
:10192000892D0E94290BC82FD0E069E270E0892D33
:101930000E94290BDC2FCC27C82B87019501AE0113
:10194000692DC6010E94440C81101AC0CE0DDF1D06
:101950004D2F68E270E0892D0E94D00A4C2F69E279
:1019600070E0892DDF91CF911F910F91FF90EF9043
:10197000DF90CF90BF90AF909F908F900C94D00A43
:10198000DF91CF911F910F91FF90EF90DF90CF905B
:10199000BF90AF909F908F900895CF93C62F61E036
:1019A00070E08C2F0E94D00A61E070E08C2F0E94C2
:1019B000290B8111F9CFCF91089590E0982F8827B6
:1019C00044E050E0845F9B4F0C94DA0A62E070E0E0
:1019D0000C94290BCF93DF93C82FD62F472F64E0A9
:1019E00070E00E94D00A4D2F65E070E08C2FDF91EF
:1019F000CF910C94D00A462F62E070E00C94D00A8C
:101A0000CF93DF93C82FD62F472F60E170E00E945D
:101A1000D00A4D2F61E170E08C2FDF91CF910C94B3
:101A2000D00ACF93C82F40E150E0682F8CEB91E0B3
:101A30000E94CD0C6FEF8C2FCF910C94FB0CFF927A
:101A40000F931F93CF93DF939FEF960F953040F541
:101A5000D22F8A01F62EC82F0E94110D4F2D4D2B2B
:101A600060E070E08C2F0E94D00A0115110511F082
:101A7000B8010AC06091CC017091CD016F5F7F4FBA
:101A80007093CD016093CC018C2F0E94EA0C41E051
:101A900050E06C2F8CEB91E00E94CD0C81E001C0F6
:101AA00080E0DF91CF911F910F91FF900895CF9328
:101AB000C82F63E070E00E94290B833149F442E0B3
:101AC00050E06C2F8CEB91E00E94CD0C81E001C0C6
:101AD00080E0CF9108950F931F93CF93FB019081E6
:101AE0009F3F51F491819F3F91F492819F3F79F400
:101AF00093819F3F61F420C0911109C091819111A0
:101B000006C09281911103C093819923B1F04115D0
:101B1000510591F08A01BF01C82F0E94DD0CB80168
:101B20008C2F0E94000D44E050E06C2F8CEB91E074
:101B30000E94CD0C91E001C090E0892FCF911F91C0
:101B40000F91089548E050E0682F8CEB91E00C94E1
:101B5000CD0CCF92DF92EF92FF920F931F93CF9312
:101B6000C82F7B018A014130584010F000E018E096
:101B70006C2F8CEB91E00E94490B6C0163E070E0EC
:101B80008C2F0E94290B873111F08C3121F4C01663
:101B9000D10670F302C000E010E09801A7016C2F9D
:101BA0008CEB91E00E94090C40E250E06C2F8CEB32
:101BB00091E00E94CD0C8C2F0E94E60C84FD0DC09C
:101BC00063E070E08C2F0E94290B8111F4CF8C2FE1
:101BD0000E94110D80E090E005C060E18C2F0E9412
:101BE000FB0CC801CF911F910F91FF90EF90DF90F8
:101BF000CF900895CF92DF92EF92FF920F931F93B1
:101C0000CF93DF93182F6B017A01682F8CEB91E053
:101C10000E947D0BEC01009799F463E070E0812F46
:101C20000E94290B843111F1882301F1C1E0D0E039
:101C30008C3111F4C0E0D0E0D195C195D10916C026
:101C4000E816F9060CF4E7011C161D067CF400E00A
:101C50009E01A601612F8CEB91E00E947D0C40E477
:101C600050E0612F8CEB91E00E94CD0CCE01DF9112
:101C7000CF911F910F91FF90EF90DF90CF9008953B
:101C80000F93AB0101E021E030E0682F8CEB91E095
:101C90000E947D0C81E090E00F910895AF92BF9279
:101CA000CF92DF92FF920F931F93CF93DF93F82E83
:101CB0006B015A01E901682F8CEB91E00E94490BFE
:101CC0008C179D0730F46F2D8CEB91E00E94490B2F
:101CD000EC018E019501A6016F2D8CEB91E00E9425
:101CE000990BCE01DF91CF911F910F91FF90DF9063
:101CF000CF90BF90AF9008950F931F93CF93FB01A8
:101D00009081911109C09181911106C09281911128
:101D100003C09381992379F04115510561F08A013F
:101D2000BF01C82F0E94DD0CB8018C2F0E94000D4E
:101D300081E090E002C080E090E0CF911F910F9190
:101D40000895CF93C82F40E250E0682F8CEB91E0CC
:101D50000E94CD0C8C2F0E94E60C84FD0CC08C2FB1
:101D60000E94E60C83FFF6CF68E18C2F0E94FB0CEB
:101D700080E090E006C060E18C2F0E94FB0C81E0C7
:101D800090E0CF9108951F920F920FB60F921124F9
:101D90002F933F938F939F93AF93BF938091CF01E6
:101DA0009091D001A091D101B091D2013091CE019A
:101DB00023E0230F2D3720F40196A11DB11D05C08E
:101DC00026E8230F0296A11DB11D2093CE0180931A
:101DD000CF019093D001A093D101B093D201809113
:101DE000D3019091D401A091D501B091D601019673
:101DF000A11DB11D8093D3019093D401A093D5016F
:101E0000B093D601BF91AF919F918F913F912F9148
:101E10000F900FBE0F901F9018952FB7F8946091F8
:101E2000CF017091D0018091D1019091D2012FBF4B
:101E300008953FB7F8948091D3019091D401A09177
:101E4000D501B091D60126B5A89B05C02F3F19F04A
:101E50000196A11DB11D3FBFBA2FA92F982F88272A
:101E6000820F911DA11DB11DBC01CD0142E0660F85
:101E7000771F881F991F4A95D1F70895CF92DF9257
:101E8000EF92FF92CF93DF936B017C010E94190FB9
:101E9000EB01C114D104E104F10479F00E94190F9F
:101EA0006C1B7D0B683E7340A0F381E0C81AD1081B
:101EB000E108F108C851DC4FECCFDF91CF91FF90E2
:101EC000EF90DF90CF900895789484B5826084BDC0
:101ED00084B5816084BD85B5826085BD85B581602E
:101EE00085BDEEE6F0E0808181608083E1E8F0E08E
:101EF0001082808182608083808181608083E0E8BD
:101F0000F0E0808181608083E1EBF0E0808184609B
:101F10008083E0EBF0E0808181608083EAE7F0E09D
:101F20008081846080838081826080838081816001
:101F300080838081806880831092C100089561153C
:101F4000710579F0FB0101900020E9F73197AF01AD
:101F5000461B570BDC01ED91FC910280F381E02DD3
:101F6000099480E090E00895DC01ED91FC910190EE
:101F7000F081E02D09948F929F92AF92BF92CF9201
:101F8000DF92EF92FF920F931F93CF93DF93CDB722
:101F9000DEB7A1970FB6F894DEBF0FBECDBF6C01C0
:101FA000142FE52FCB01022F19A2223008F40AE0EA
:101FB0007E0121E2E20EF11C802E912CA12CB12C8D
:101FC000612F7E2FA50194010E941E12029F1019FD
:101FD000112481E0E81AF1081A3014F4105D01C0F0
:101FE000195CF7011083122FE32FCA01232B242B36
:101FF000252B31F7B701C6010E949F0FA1960FB69E
:10200000F894DEBF0FBECDBFDF91CF911F910F912E
:10201000FF90EF90DF90CF90BF90AF909F908F9008
:1020200008952115310541F4DC01ED91FC910190F9
:10203000F081E02D642F09940C94BB0F9A01462F78
:1020400050E060E070E00C941110DC01ED91FC9127
:10205000008CF18DE02D099426E231E0FC01318302
:102060002083FB014189528963897489FC01428381
:102070005383648375830895FC0185899689089547
:10208000FC01818D928D0895CF93DF931F92CDB780
:10209000DEB76983DC01ED91FC910280F381E02DD4
:1020A00041E050E0BE016F5F7F4F09950F90DF91D7
:1020B000CF910895CF93DF93EC01898D9A8D892B71
:1020C00041F0E881F9810680F781E02DCE01099584
:1020D000F4CFDF91CF910895CF93DF93EC018C85FE
:1020E000843061F00E94110DEC85F0E0EE0FFF1FCF
:1020F000EE55FE4F1182108284E08C87DF91CF91E4
:102100000895FC01108E178A6E5F7F4F84850C94B2
:102110007C0EFC0184850C94A10ECF93DF93EC011F
:102120009A018F89988DAB01BC018C850E944E0E5F
:102130002F89388D280F391F388F2F8BDF91CF9142
:1021400008950F931F93CF93DF931F92CDB7DEB700
:10215000FC01218D328D232B61F08C0141E050E098
:10216000BE016F5F7F4F84850E94FA0D1816190615
:102170001CF08FEF9FEF08C0F801818D928D0197C1
:10218000928F818F898190E00F90DF91CF911F9185
:102190000F910895CF93DF93FC01218D328D21158E
:1021A000310519F48FEF9FEF11C0EC01421753076F
:1021B00008F0A9018C850E94FA0D1816190694F7EB
:1021C000298D3A8D281B390B3A8F298FDF91CF91BA
:1021D0000895CF93DF931F92CDB7DEB7FC01218D19
:1021E000328D232B49F0BE016F5F7F4F84850E94A3
:1021F000400E898190E002C08FEF9FEF0F90DF913A
:10220000CF9108950F931F93CF93DF93CDB7DEB790
:1022100028970FB6F894DEBF0FBECDBF8C01DC014E
:10222000ED91FC910284F385E02D0995F801648518
:102230008CEB91E00E947D0B892B51F148E050E03E
:10224000BE016F5F7F4FD8011C968C910E94FA0DE2
:102250009C0118161906D4F4BE016F5F7F4FC801A8
:102260000F960E94CE038D8190E0982F88272E81B3
:10227000820F911DF801968B858B2F8130E0322FD4
:1022800022278885280F311D328F218FC90102C076
:1022900080E090E028960FB6F894DEBF0FBECDBF69
:1022A000DF91CF911F910F910895CF92DF92EF921E
:1022B000FF920F931F93CF93DF93FC01248524306B
:1022C00011F080E026C08B01EC0183E0C82E84E091
:1022D000D82EE12CF12CC6010E94090B811102C0FD
:1022E000EC860AC08831E1F3FFEFEF1AFF0AD394BE
:1022F000E4E0EE16F10479F78C85843011F31E8743
:102300000D871A8E198E20E0A80162E00E941F0D31
:1023100081E0DF91CF911F910F91FF90EF90DF90BF
:10232000CF900895FC011382128288EE93E0A0E022
:10233000B0E084839583A683B78382E591E091839F
:10234000808384E08487CF010F960C94B803CF92EA
:10235000DF92EF92FF920F931F93CF93DF93CDB74E
:10236000DEB7AF970FB6F894DEBF0FBECDBF8C01BE
:102370006B017A01CE0101960E94B803CE01099645
:102380000E949211CE018A960E94B8036AE971E018
:10239000CE0184960E94EE05BE016C5D7F4FCE019A
:1023A00001960E940C06AE01465D5F4FB601CE015C
:1023B00001960E947E0881309105C1F4D801ED910B
:1023C000FC910088F189E02D86E291E09DA38CA329
:1023D0008CA59DA5AEA5BFA58EA39FA3A8A7B9A7B1
:1023E000A701BE016C5D7F4FC8010995AF960FB67E
:1023F000F894DEBF0FBECDBFDF91CF911F910F913B
:10240000FF90EF90DF90CF9008950F9300E020E0D1
:1024100040E060E087ED91E00E94C2030F910895D3
:102420000F9300E020E040E060E08DED91E00E943D
:10243000C2030F910895F8940C944612A1E21A2E4B
:10244000AA1BBB1BFD010DC0AA1FBB1FEE1FFF1F58
:10245000A217B307E407F50720F0A21BB30BE40BA8
:10246000F50B661F771F881F991F1A9469F76095EF
:102470007095809590959B01AC01BD01CF010895A9
:10248000EE0FFF1F0590F491E02D0994F894FFCF13
:1024900011001200130010000F000E0013000E00B8
:1024A0000500060007000400030002000700020008
:1024B000000400000000760300000000E40319049B
:1024C000370442046004FA03110583045C047D05AB
:1024D000BF051104000000000C09D1092209000009
:1024E000000044108D104010A110E9105A10551131
:1024F0006C108110A71189100211CA1025102C1020
:022500003C108D
:00000001FF
